:020000040000FA
:1000000040140020650100006D0100006F01000038
:100010007101000073010000750100000000000084
:100020000000000000000000000000007701000058
:1000300079010000000000003B02000059050000AB
:100040007F0100007F0100007F0100007F010000B0
:100050007F0100007F0100007F0100007F010000A0
:100060007F0100007F0100007F0100007F01000090
:100070007F0100007F0100007F0100007F01000080
:100080007F0100007F0100007F0100007F01000070
:100090000000000000000000000000000000000060
:1000A0000000000000000000000000000000000050
:1000B0007F010000000000007F0100007F010000C0
:1000C00000F002F800F03AF80AA090E8000C824430
:1000D0008344AAF10107DA4501D100F02FF8AFF20D
:1000E000090EBAE80F0013F0010F18BFFB1A43F016
:1000F000010318474405000064050000103A24BFBE
:1001000078C878C1FAD8520724BF30C830C144BF7C
:1001100004680C60704700000023002400250026BE
:10012000103A28BF78C1FBD8520728BF30C148BF5A
:100130000B6070471FB51FBD10B510BD00F035F83E
:100140001146FFF7F7FF00F03DFA00F053F803B453
:10015000FFF7F2FF03BC00F05BF8000072B67047D7
:1001600062B670470948804709480047FEE7FEE746
:10017000FEE7FEE7FEE7FEE7FEE7FEE7FEE7FEE757
:1001800004480549054A064B704700006105000018
:10019000C100000040040020401400204010002056
:1001A00040100020704770477047754600F02CF8EB
:1001B000AE4605006946534620F00700854618B054
:1001C00020B5FFF7DDFFBDE820404FF000064FF0FF
:1001D00000074FF000084FF0000B21F00701AC467C
:1001E000ACE8C009ACE8C009ACE8C009ACE8C0099B
:1001F0008D46704710B50446AFF300802046BDE839
:100200001040FFF7A4BF000000487047E003002043
:1002100001491820ABBEFEE726000200704700002F
:1002200012484FF0FF010170002080F30988104848
:100230004FF08051016062B6FEE772B6EFF30980BD
:1002400020B120E9F00F0B490968086009480A4904
:100250000A6802601068B0E8F00F80F309884EF079
:10026000040E62B6704700BF72B600BF22ED00E018
:1002700004ED00E0080000200C00002010B504464A
:10028000002008490870084908600849086000F023
:1002900053F9204600F034F9208800B110BD00BFAA
:1002A000FCE7000010000020080000200C000020E7
:1002B000264800682649884212D12648006880688E
:1002C00020B9244800682449086039E02148806842
:1002D000806820B91F4880681F49086030E0704777
:1002E0001C48006819490968884211D1194880687A
:1002F000806820B9174880681749086020E01348D3
:100300000068806818B112481349086018E0E6E7F1
:10031000104880680D490968884211D10D4800686D
:10032000806820B90B4800680B49086008E007485E
:100330000068806818B106480749086000E0CEE709
:100340004FF080500549086000BFC8E70800002052
:10035000D4010020D40000200C00002004ED00E0B7
:1003600010B504460748007848B9074800680749AF
:100370000860FFF755FF43F69920208001E0012037
:10038000208010BD10000020D40000200C000020B0
:100390002DE9F04704460D4616461F46DDE908895B
:1003A00043463A463146284600F00AF88246C4F8E9
:1003B00000A0C4F804800020A9F80000BDE8F08780
:1003C00070B5044602EB83004FF08076051F284687
:1003D0002E60051F28462C604FF01436051F284656
:1003E0002E604FF01236051F28462E604FF0033660
:1003F000051F28462E604FF00236051F28462E6046
:100400007610051F28462E60051F284629604FF0EC
:100410001136051F28462E604FF01036051F28465E
:100420002E604FF00936051F28462E604FF0083623
:10043000051F28462E604FF00736051F28462E6000
:100440004FF00636051F28462E604FF00536051F73
:1004500028462E604FF00436051F28462E6070BDDA
:1004600010B500240EE00A4850F83400806840B10E
:10047000074850F834008068401E054951F8341090
:100480008860641C202CEED3FFF712FF10BD000023
:10049000D400002030B502461148006850434FF4A4
:1004A0007A71B0FBF1F0401E4FF0E021486148172F
:1004B0000721002804DB4B071C0E0A4B1C5406E0E6
:1004C0004B071D0E084B00F00F04241F1D5500BFE5
:1004D00000204FF0E02188610720086130BD000056
:1004E0001800002000E400E018ED00E000BF00BFAD
:1004F00002490968491C014A1160F9E7140000200B
:100500001CB5044600200749086007480068CDE98B
:10051000000406480022064903680648FFF738FF32
:100520001CBD00001400002034060000300600004E
:10053000ED040000D4010020002007E0054A02EB92
:10054000C00100220A604A60421CD0B22028F5D3C4
:1005500070470000D400002010B5FFF781FF10BDE8
:10056000014802490860704740787D01180000206A
:1005700000BF0120064908604FF47A7000F01CF8B3
:100580000020034908604FF47A7000F015F8F0E796
:100590000000002000BF0120064908604FF47A7077
:1005A00000F00AF80020034908604FF47A7000F068
:1005B00003F8F0E70400002000E0401E0028FCD112
:1005C000704700000EB5FFF7C9FD6420FFF762FF1A
:1005D00002A8FFF753FE02A814210E4B0022CDE91A
:1005E00000100D490D48FFF7D3FE02A814210C4B53
:1005F0000022CDE900100B490B48FFF7C9FE074860
:100600000A4908600848886002A8FFF7A9FE002090
:100610000EBD00001C00002071050000BC00002081
:100620006C00002095050000C8000020D4000020C8
:10063000E0010020800000005806000000000020BB
:100640001C000000FC000000740600001C000020DC
:100650002414000018010000000000000000000049
:10066000000000000000000000000000000000008A
:0406700040787D0150
:04000005000000C136
:00000001FF
